:020000021000EC
:10000000E03F082095010100FB000100E100010034
:10001000090101001901010029010100000000008F
:10002000000000000000000000000000A10201002C
:100030003901010000000000010301005901010025
:10004000D15E0100D15E0100D15E0100D15E0100F0
:10005000D15E0100D15E0100D15E0100D15E0100E0
:10006000D15E0100D15E0100D15E0100D15E0100D0
:10007000D15E0100D15E0100D15E0100D15E0100C0
:10008000D15E0100D15E0100D15E0100D15E0100B0
:10009000D15E0100D15E0100D15E0100D15E0100A0
:1000A000D15E0100D15E0100D15E0100D15E010090
:1000B000D15E0100D15E0100D15E0100D15E010080
:1000C000D15E0100D15E0100D15E0100A0270200D7
:1000D00000C00720FC02000000C30720B404000099
:1000E00004207146084203D0EFF3098005F00EBFEB
:1000F000EFF3088005F00ABF704708B5014807F024
:100100005CF8FEE740FE010008B5024807F055F82C
:10011000FEE700BF4BFE010008B5024807F04DF8AE
:10012000FEE700BF56FE010008B5024807F045F89B
:10013000FEE700BF61FE010008B5024807F03DF888
:10014000FEE700BF6EFE010008B5024807F035F873
:10015000FEE700BF7CFE010008B500F0E9FC00F0FE
:10016000F1F8BDE8084000F0F7BC0B4610B5401AA6
:100170005C1AA24203D9C45843F8044BF8E710BDF7
:100180000346002210B51C1AA14202D943F8042BE1
:10019000F9E710BD154805F0D7FD144805F0D7FD67
:1001A000134C144DAC4209D3134DAC420ED254F84B
:1001B000080B54F8041CFFF7E3FFF6E794E803008C
:1001C0000C3454F8042CFFF7D0FFEBE708F09EFD49
:1001D00005F012FC05F05AF907F0DAF94FF4164071
:1001E00005F01EFD054806F0E8FFFEE7E03F0820A9
:1001F000CC000100D8000100E000010090FE0100E9
:1002000010B50C46094806F0D8FF204606F0D5FF89
:10021000074806F0D2FF074806F058FF4FF080432A
:10022000AA221A7200221A7010BD00BF5AF10100F2
:1002300083F10100C0C62D0008B5064806F0BDFFD9
:10024000054806F043FF4FF08043AA221A720022AD
:100250001A7008BD24F10100C0C62D004FF0100334
:1002600083F31188BFF36F8FBFF34F8FFEE7FFFF5C
:100270004FF0807340F8043C054B21F0010140F839
:10028000081C40F80C3C40F8202C4038704700BF58
:100290005D020100FFFFFFFFFFFFFFFFFFFFFFFF0A
:1002A000074B19680868B0E8F00F80F30988BFF3BE
:1002B0006F8F4FF0000080F311884EF00D0E7047E5
:1002C00010C307204FF0100383F31188BFF36F8F23
:1002D000BFF34F8F024A136801331360704700BFAA
:1002E00000C30720034A1368013B13600BB983F373
:1002F0001188704700C30720FFFFFFFFFFFFFFFFCC
:10030000EFF30980BFF36F8F0D4B1A6820E9F00FF0
:1003100010602DE908404FF0100080F3118800F0C4
:100320008FFA4FF0000080F31188BDE8084019688B
:100330000868B0E8F00F80F30988BFF36F8F70474B
:1003400010C3072008B54FF0100383F31188BFF3E3
:100350006F8FBFF34F8F00F069F918B14FF08052E3
:10036000024B1A60002383F3118808BD04ED00E0FE
:1003700008B505F01DFD024B1B68C01A08BD00BF83
:1003800008C3072010B5044600F042F9204608F0E3
:1003900057FD044600F0D0F90CB9FFF74DFF204699
:1003A00010BD10B5044640B100F032F9204608F007
:1003B0004FFDBDE8104000F0BFB910BD064A1368FC
:1003C0001968064B19B94FF0FF321A60704712686E
:1003D000D268D2685268F8E714C3072024C4072003
:1003E000F8B51B4B1B4E1D68044630680F460430A1
:1003F00000F0C8FE334640B901203168164EC96A84
:100400003268884022EA00023260621C07D137B1AC
:10041000196812480431BDE8F84000F090BE2C4441
:100420001A68A542546007D90D4A10681968BDE8DA
:10043000F840043100F08FBE0A4A10681968043190
:1004400000F089FE084B1A68944238BF1C60F8BD62
:1004500058C4072010C30720F8C3072044C407204E
:1004600018C3072014C3072024C407202DE9F84F20
:100470004FEA820A804650460D4699460B9EFFF78A
:1004800081FF0746002800F09B805820FFF77AFF85
:100490000446002800F0918052460763A5213846A3
:1004A00008F032FD236BAAF1040A9A442AF0070AE5
:1004B0006B1E04F134020735597802F8011B13F85A
:1004C000011F09B1AB42F7D10A9D4FF0000B092D76
:1004D00028BF0925271DE5626564384684F83BB0CE
:1004E000C4F848B000F028FEC5F10A0504F1180070
:1004F00000F022FEC4F850B02461A5616462C4F823
:100500004CB084F854B04A4641465046FFF7B0FE1E
:10051000206006B13460FFF7D5FE304B304E1A68CC
:10052000DFF8E48001321A603568002D4BD1346069
:100530001B68012B1AD108EB0500143500F0F1FD02
:10054000C82DF8D1DFF8C490264D484600F0E9FDEB
:10055000284600F0E6FD244800F0E3FD234800F0C3
:10056000E0FD234BC3F80090224B1D600125224A79
:1005700022491368086801331360E26A05FA02F33E
:10058000034314200B6000FB0280394600F0D7FDC6
:10059000FFF7A8FE1A4B1B6863B13368DA6AE36A97
:1005A0009A4207D24FF08052164B1A60BFF34F8F1A
:1005B000BFF36F8F2846BDE8F88F3846FFF7F1FE8E
:1005C0004FF0FF35F6E70E4B1B68002BCED133689A
:1005D000DA6AE36A9A4298BF3460C7E7E8C3072043
:1005E00010C3072010C407202CC4072044C40720D0
:1005F00014C3072018C30720F4C30720F8C307203B
:1006000040C4072004ED00E01CC30720FCC3072002
:10061000024A136801331360704700BFF0C307201C
:10062000014B1868704700BF58C407202DE9F84FE8
:10063000364B1B68002B47D1354B1C6801341C60BE
:100640005CB9344A344B116818681060334A196039
:10065000136801331360FFF7B1FE314D4FF0000B0B
:100660002B68304F9C423ED3DFF8A880DFF8C4905F
:10067000D8F80020126872BB4FF0FF322A6032E0D7
:1006800006F1040A504600F07DFDB16A19B106F189
:10069000180000F077FD01224FF0140EF06AD9F82F
:1006A000003002FA00F119431F4BC9F800100EFB8D
:1006B0000030514600F043FD3868F16AC26A914249
:1006C00028BF4FF0010BD3E7184A4FF0000B136817
:1006D0000133136011E0D8F80020D268D668716841
:1006E0008C42CDD229603A680F4BD16A14224A431A
:1006F0009A58022A28BF4FF0010B0D4A1268002AAF
:1007000018BF4FF0010B5846BDE8F88FF0C3072023
:1007100058C4072014C3072018C3072028C4072083
:1007200024C4072010C307201CC30720ECC30720E4
:100730005CC40720F8C307202DE9F843FFF7C2FD8A
:100740002A4B1A68013A1A601C682CB10024FFF782
:10075000C9FD2046BDE8F883254B1B68002BF5D06A
:10076000DFF8A490234FDFF8A480D9F80030E3B974
:100770000CB1FFF723FE204D2C6844B101271F4E1A
:10078000FFF754FF00B13760013CF9D12C601B4BDF
:100790001B68002BDAD04FF08052194B1A60BFF360
:1007A0004F8FBFF36F8F0124D1E7D9F80C300125AB
:1007B000DC68261D04F1180000F0E4FC304600F06F
:1007C000E1FC1420E26A396805FA02F30B4300FBEE
:1007D000028031463B6000F0B2FC0A4BE26A1B68C3
:1007E000DB6A9A4224BF054B1D60BEE7F0C30720B9
:1007F000E8C30720F8C30720ECC307205CC4072028
:1008000004ED00E010C307202CC407201CC3072000
:1008100008B540B94FF08052084B1A60BFF34F8FB4
:10082000BFF36F8F08BDFFF7F3FE0021FFF7D8FD80
:10083000FFF782FF0028EDD008BD00BF04ED00E007
:10084000264B70B51A68264B12B101221A6070BD92
:100850001A60FFF78DFD234A234C1568A84204D97E
:100860002168CB6C5B1B0344CB64236810601B6B5B
:100870001A68B2F1A53F0BD15A68B2F1A53F07D172
:100880009A68B2F1A53F03D1DB68B3F1A53F04D06C
:10089000206821683431FFF7B3FC144B1B68B3FAAE
:1008A00083F31420DBB2C3F11F0300FB03F21049F2
:1008B0008D186E68083276680A44964200FB03136E
:1008C00008BF72686E6008BF6A605B68DB6823609F
:1008D00023685A6B074B5A6470BD00BFF0C30720F2
:1008E0005CC40720E4C3072010C30720F8C3072017
:1008F0001CC307200040024010B50C46054B196888
:10090000183100F028FC2046BDE810400121FFF717
:1009100067BD00BF10C3072038B5C368DC6804F1A9
:100920001805284600F02EFC114B1B68E3B9251D65
:10093000284600F027FC01230E49E26A086893402C
:10094000034314200B6029460B4B00FB023000F0E0
:10095000F6FB0A4BE26A1B68DB6A9A4285BF0120FC
:10096000074B0020186038BD29460648EFE700BF56
:10097000F0C30720F8C307201CC3072010C30720BB
:100980005CC407202CC40720034B1B680360034B87
:100990001B684360704700BF28C4072058C4072065
:1009A00038B50D460446FFF78DFC0E4B2A681868D3
:1009B000531C10D00C4B21681B689942636801D00E
:1009C00098420DD2C11A8A420AD91B1A13442B60CD
:1009D0002046FFF7D9FF0024FFF784FC204638BDEE
:1009E0000124F9E758C4072028C407200122014B3D
:1009F0001A6070475CC40720054B1B6833B1054B78
:100A00001B68002B0CBF022000207047012070479C
:100A100040C40720F0C307202DE9F0410446002818
:100A200039D01E4DC36A2A68D26A934233D2142742
:100A300082691B4E002AA8BF2A6807FB0363A2BF76
:100A4000D26AC2F10A02826142699A4220D100F15F
:100A50000408404600F096FB124A48B9E06A474352
:100A6000F3592BB901211368814023EA0103136074
:100A70002B681168D86A012383400B431360142349
:100A8000E062414603FB0060BDE8F04100F057BB67
:100A90002B68DB6AC362BDE8F08100BF10C307208A
:100AA0001CC30720F8C30720F8B5044608B9002086
:100AB000F8BD836CC16A426C013B91428364F6D0FD
:100AC000002BF4D1051D284600F05CFB104E114AA6
:100AD00050B91421E76A794373582BB90120136880
:100AE000B84023EA00031360636CC3F10A01E362B8
:100AF000A1610124116804FA03F008431060142076
:100B0000294600FB036000F01AFB2046F8BD00BF39
:100B10001CC30720F8C30720044B1A681AB11968D0
:100B20008A6C01328A641868704700BF10C30720BE
:100B300010B5FFF71DFC064B064A196829B1196864
:100B40001468CB6C1B1B0344CB64106010BD00BF4A
:100B500010C30720E4C3072008B5FFF709FC014BC9
:100B6000186008BDE4C3072070B51546026C044642
:100B7000866B42B905689DB94068FFF795FF6560CF
:100B80000136A66370BD6DB9806808F098F9A36856
:100B9000226C13446268A360934201D32368A3606C
:100BA0000020EDE7C06808F08AF9236CE2685B4238
:100BB00021681A448A42E2603EBF62689B18E36083
:100BC000022DEDD10EB1013EEAE73046D8E773B50C
:100BD000856C0A46EB6BA96B019099421AD201A968
:100BE000284695F84540FFF7BFFF64B2631C0646F0
:100BF0000BD16B6A33B105F12400FFF78DFE00289D
:100C000018BF0126304602B070BD013464B285F8C9
:100C10004540F7E70026F5E703461A6C10B408468E
:100C200062B1D9685C681144A142D96028BF1968D3
:100C300010BC28BFD960D96808F041B910BC704712
:100C400070B50446FFF73EFB94F8455004F12406C6
:100C50006DB2002D14DCFF2384F84530FFF742FB12
:100C6000FFF730FB94F8445004F110066DB2002DEC
:100C700019DCFF2384F84430BDE87040FFF732BB35
:100C8000A36C4BB100212046FFF7A1FF08B1FFF78D
:100C9000ADFE013D6DB2DCE7636A002BDBD0304670
:100CA000FFF73AFEF2E72369002BE2D03046FFF768
:100CB00033FE08B1FFF79AFE013D6DB2D7E7FFFFA3
:100CC00038B504460D46FFF7FDFA206CE36B226849
:100CD0004343D1181B1A13446160E3600021FF23D2
:100CE000A163A26084F8443084F8453095B9236943
:100CF00063B104F11000FFF70FFE38B14FF08052DE
:100D0000094B1A60BFF34F8FBFF36F8FFFF7EAFAFB
:100D1000012038BD04F1100000F003FA04F12400B2
:100D200000F0FFF9F2E700BF04ED00E070B5064601
:100D300048434C300D46FFF725FB044648B155B9F2
:100D40002060E663256401212046FFF7B9FF0023F8
:100D5000A364204670BD00F14C030360F1E7FFFF80
:100D60002DE9FF470027044689461E46B846DFF8AE
:100D7000F0A00192FFF7A6FAA26BE36B9A4201D3AF
:100D8000022E21D1324649462046FFF7EDFEA36CE4
:100D900093B131462046FFF71AFF38B14FF0805229
:100DA0002F4B1A60BFF34F8FBFF36F8FFFF79AFA85
:100DB000012004B0BDE8F087636A002BEDD004F198
:100DC0002400FFF7A9FDE8E7019D1DB9FFF78AFAA6
:100DD0000020EEE717B902A8FFF7D6FDFFF782FA69
:100DE000FFF716FCFFF76EFA94F84430FF2B08BFAC
:100DF00084F8448094F84530FF2B08BF84F8458080
:100E0000FFF770FA01A902A8FFF7CAFD10BBFFF7B0
:100E100059FAA76BE56BFFF765FAAF4214D1019958
:100E200004F11000FFF768FD2046FFF709FFFFF708
:100E300083FC38B94FF08053CAF80030BFF34F8FAE
:100E4000BFF36F8F012795E72046FFF7F9FEFFF705
:100E500073FCF7E72046FFF7F3FEFFF76DFCB7E7FB
:100E600004ED00E010B5024600210120FFF75EFF0F
:100E7000044638B1002343600360C3601A46194634
:100E8000FFF76EFF204610BD2DE9F0410446904665
:100E90001F46EFF311864FF0100383F31188BFF361
:100EA0006F8FBFF34F8F826BC36B9A4201D3022FB8
:100EB00028D194F845503A466DB22046FFF754FECB
:100EC0006B1C1AD1A36C83B139462046FFF77FFE15
:100ED00008B9012005E0B8F1000FFAD00120C8F8E8
:100EE000000086F31188BDE8F081636A002BF0D022
:100EF00004F12400FFF710FDEAE701356DB284F834
:100F00004550E6E70020ECE738B50D46EFF31184D5
:100F10004FF0100282F31188BFF36F8FBFF34F8F32
:100F2000816BC26B914221D290F84520013152B2BF
:100F30008163511C15D1826C62B10021FFF747FE1D
:100F400008B9012003E0002DFBD00120286084F3C4
:100F5000118838BD426A002AF3D02430FFF7DCFC48
:100F6000EEE7013252B280F84520EAE70020EEE7D2
:100F70002DE9FF474FF0000A04460F4698465646B3
:100F8000DFF81C910192FFF79DF9A56B55B3394627
:100F90002046E668FFF740FEB8F1000F1BD123683A
:100FA000013DA56313B9FFF7B7FD6060236963B125
:100FB00004F11000FFF7B0FC38B14FF08052384B0D
:100FC0001A60BFF34F8FBFF36F8FFFF78BF90120CC
:100FD00004B0BDE8F087636AE660002BF5D004F149
:100FE0002400E7E7019D1DB9FFF77CF92846EFE7EC
:100FF000BAF1000F02D102A8FFF7C6FCFFF772F9A1
:10100000FFF706FBFFF75EF994F84430FF2B08BFAB
:1010100084F8446094F84530FF2B08BF84F845609D
:10102000FFF760F901A902A8FFF7BAFC50BBFFF770
:1010300049F9A56BFFF756F9F5B9236833B9FFF7FE
:1010400041F96068FFF7E8FCFFF74CF9019904F1FA
:101050002400FFF751FC2046FFF7F2FDFFF76CFB81
:1010600038B94FF08053C9F80030BFF34F8FBFF34A
:101070006F8F4FF0010A86E72046FFF7E1FDFFF78B
:101080005BFBF6E72046FFF7DBFDFFF755FBFFF7BD
:1010900019F9A56BFFF726F9002DEAD1A6E700BFE5
:1010A00004ED00E02DE9F04107469046EFF311868C
:1010B0004FF0100383F31188BFF36F8FBFF34F8F8F
:1010C000846B0CB390F84450013C6DB2FFF7A4FD63
:1010D0006B1CBC6313D13B690BB901200BE007F11A
:1010E0001000FFF719FC0028F7D0B8F1000FF4D07A
:1010F0000120C8F8000086F31188BDE8F0810135B1
:101100006DB287F84450E8E72046F4E710B504468E
:10111000FFF7D8F8A46BFFF7E5F8204610BD806B09
:10112000704700F1080343604FF0FF32C360036172
:1011300000238260036070470023036170474368A7
:101140009A684B608A609A68516099600368086188
:101150000133036070470A6830B5531C0AD1036934
:101160005A684A6091608B60596003680861013376
:10117000036030BD00F108035C682568AA42EFD324
:101180002346F9E74168826803698A608268516092
:101190005968884208BF5A60002202611868013805
:1011A0001860704730B54FF48035364CE561364CE9
:1011B000A0602046C468E406FCD48068C0B263B96D
:1011C0000B46314C5D1A954209DA13F8015BA560B4
:1011D000E568ED06FCD4A568F4E72B4B22B94FF483
:1011E0008032284B9A6130BD072A0C7829DD9C603B
:1011F0004C78083A9C608C789C60CC789C600C7928
:101200009C604C799C608C799C60CD7901F10804DC
:101210009D609D696D07FCD59D680D709D684D7042
:101220009D688D709D68CD70DD68ED06FCD49D686D
:101230000D719D684D719D688D719D68CD712146C0
:10124000CCE7032A14DD9C604C78043A9C608C78CF
:101250009C60CD780C1D9D60DD68ED06FCD49D681A
:101260000D709D684D709D688D709D68CD70E6E72E
:101270004D1C9C60013ADC68E406FCD49C680C7050
:101280002946ABE700C0092000800840002307B5CD
:1012900002A901F8013D012300F01F001A46FFF7E3
:1012A00081FF9DF8070003B05DF804FB13B502ACA5
:1012B00004F8011D00F01F0000230122214640F028
:1012C0002000FFF76FFF02B010BD08B51720FFF731
:1012D000DDFFC0F3001008BD70210720FFF7E6BF57
:1012E0000A4600230146A020FFF75CBF08B5002096
:1012F000FFF7CCFFBDE8084000F0FE010020FFF73B
:10130000D5BFFFFF4FF08072014BDA61704700BF1D
:1013100020C0092008B50020FFF7B8FF40F0010108
:10132000C9B20020FFF7C2FF4FF08072014B9A61F3
:1013300008BD00BF20C0092020210720FFF7B6BF4D
:101340000023E1201A461946FFF72CBF37B50446A3
:101350000D46FFF7F5FF20462946FFF7C1FF4FF086
:1013600080720C4CA2610022ADF80620BDF8063058
:1013700001339BB2ADF8063033B94FF08073E361AF
:10138000FFF7DEFF03B030BDFFF79FFF0028EDD071
:10139000F3E700BF20C0092008B51720FFF776FF4C
:1013A000C04300F0010008BD40210720FFF77EBFC9
:1013B00008B50A46012301466120FFF7F3FEC0F39A
:1013C000420008BD0023E2201A461946FFF7EABE94
:1013D00070B5064600200D461446FFF757FF66B16C
:1013E00000F0BF006DB100F0DF016CB101F0EF0162
:1013F0000020BDE87040FFF759BF40F04000C0B288
:10140000F0E740F02001F0E741F01001F0E710B5FF
:1014100004460020FFF73AFF34B900F0F70100203E
:10142000BDE81040FFF742BF012C04D100F0FB01E2
:1014300041F00801F3E7022C14BF40F0080140F02E
:101440000C01C9B2EBE708B50020FFF71FFFBDE8AC
:10145000084040F00201C9B20020FFF727BF08B5DD
:101460000020FFF713FFBDE8084000F0FD01002059
:10147000FFF71CBF40F6DD1398420BD840F662130D
:10148000B0F5166F38BF1846A0F51661C9B2052031
:10149000FFF70CBF1846F7E710B504460620FFF724
:1014A000F5FEFA2C00F0D70106D141F0200106200C
:1014B000BDE81040FFF7FABEB4F5FA6F08BF41F07F
:1014C0000801F4E710B504460620FFF7DFFE032C01
:1014D00028BF032420F0060141EA4401C9B20620D6
:1014E000BDE81040FFF7E2BEB0F57A6F28BF4FF4B9
:1014F0007A60FA2838BFFA20FA23B0FBF3F30F29F9
:1015000028BF0F21013BDBB241EA0311C9B204201D
:10151000FFF7CCBE1130C0B2162804D8202928BF4E
:101520002021FFF7C3BE7047032806D0042814BF4C
:10153000032102210320FFF7B9BE0121FAE70A4681
:10154000002301463020FFF72DBE0A460023014646
:101550002A20FFF727BEFFFF73B504460E46154647
:10156000FFF730FFFFF7ECFE4FF080722A4BDA6195
:10157000FFF775FF002201201146FFF729FFFFF753
:10158000ABFE0220FFF743FF3046FFF773FF28460C
:10159000FFF782FF0320FFF795FF03210220FFF7EB
:1015A00085FE00210120FFF781FE03214FF4FA7030
:1015B000FFF79AFF21460020FFF7ACFF0021122021
:1015C000FFF774FE00211320FFF770FE00211420A6
:1015D000FFF76CFE00211520FFF768FE00211620A2
:1015E000FFF764FE0D4B18681B79009005208DF8FD
:1015F0000430FFF799FF68460521FFF7A0FF05219A
:101600006846FFF7A2FFFFF71EFF4FF4FA6005F0F0
:101610005DFD02B070BD00BF20C00920AFF1010028
:10162000242310B54FF6FF7403FB0101884200D15B
:1016300010BD43782BB1038C1344A34228BF23462B
:1016400003842430F2E7FFFF002337B502A840F8F7
:10165000043D0C4B04215B68984705460A4B019AF0
:101660001C680421141B1A6008482246FFF7D8FFA3
:10167000224602210648FFF7D3FF281C18BF01208D
:1016800003B030BD60C4072090C5072076C4072092
:101690002AC5072008B50B4B197803788B420A4BF3
:1016A0000BBF1A889A880132013214BF9A801A80BF
:1016B000064B8170DB6820219847003018BF01205D
:1016C00008BD00BF00C0072006C5072060C4072072
:1016D0000A4B02781B789A42094B0BBFDA881A89A9
:1016E000013201320CBFDA801A810379C3F3C202DE
:1016F000073262F3C5030371FFF7CCBF00C00720B8
:1017000006C50720002210B5064B13F822409100B1
:10171000844201D1581810BD0132042AF5D10020AD
:1017200010BD00BF7FC5072070B1C3780133DBB2A5
:10173000FF2BC37008D100230448C118CA780433B2
:101740005208102BCA70F8D1704700BF7FC5072020
:101750002422034602FB0101024630B591420FD11B
:10176000044600259A4211D01979C1F3C200198CA0
:1017700041EA0041A94284BF1C460D462433F1E7EB
:101780001446243212F8235C002DE7D1204630BDE8
:1017900038B50446C90001F10805FFF755FF1C4B99
:1017A00022781B789A4224D102211A48FFF7D0FFF1
:1017B0000023024680F8203080F82130234690F83C
:1017C000231080F8225021F07F01C5F306250D4338
:1017D00080F8235004F1200153F8044B8B4242F867
:1017E000044BF9D10C4A0379127862F3C5030371F3
:1017F00038BD04210948FFF7ABFFE378002BD7D1B0
:1018000090F82330042543F0800380F82330CFE79D
:1018100000C007202AC5072008C0072076C407207B
:1018200008B5FFF76FFF0346D8B9FFF76BFF034614
:10183000B8B90D4AD378D179D07A8B4296BF194680
:10184000131D1346814294BF0846084BD17B084ABA
:10185000814238BF1346002206491A60CA7A013213
:10186000CA72184608BD00BF7FC5072087C507207C
:101870008BC5072006C507202DE9F0474FF0240847
:1018800005460C46002708FB0218DFF85C91DFF8DC
:101890005CA1A04501D1BDE8F08794F92330002B6D
:1018A00029DACDB12B786278934209D16878217812
:1018B000884205D124220021204607F025FB69E05B
:1018C000E97849B16978914206D122789A4203D1E8
:1018D000AA79A3799A42EDD094F8232094F8223083
:1018E000218C02F07F0243EA0223994252DB204618
:1018F000FFF7D0FEDEE76378002B4BD0002D32D00F
:101900002A7902F0C002C02A2BD1227869788A4253
:1019100002D128789842CDD0E678A878864208D1BE
:10192000994206D129788A4203D1A179AA799142B4
:10193000C0D0A978E278914215D16A789A4212D142
:1019400021782A7891420ED1A179AA7991420AD1BF
:10195000237984F8207067F3C50384F8217023711C
:1019600018E0002AE5D194F8231094F82220208C66
:1019700001F07F0142EA012290420BDB227984F8D8
:101980002070C2F3C201CEB284F8217026B1204685
:10199000FFF79EFE24347CE702F0C002C02A20D06C
:1019A000207899F8002090421BD1E278934218D019
:1019B000BAB103226379E17062F3071363712046C1
:1019C000FFF786FE23799AF8002062F3C50323719E
:1019D0006078FFF797FE00B10760002E7FF46AAFD2
:1019E000D8E70126F4E700BF00C0072008C00720A1
:1019F000431EDBB2FD2B9DBF024B1870012000205F
:101A0000704700BF00C00720014B1878704700BF27
:101A100000C007202DE9F743044691461E469DF875
:101A200028500F46002965D0344B93F8008041457B
:101A300060D00F2E5ED800285ED02022002107F053
:101A400063FAFF2F08BF4FF0000903222379677064
:101A500069F3871362F30203294A84F8008012783D
:101A600084F8028062F3C503264A23711378013398
:101A7000DBB21370A3710BAB0193C5B90125012330
:101A8000DFF88480384688F80030FFF73BFE0746D1
:101A9000FFF74AFE002388F8003063791FBB66F326
:101AA00007136371E770284603B0BDE8F08304F1C3
:101AB0000809019AE0791346526853F8081B00EBB5
:101AC00002085FFA88F8013DB8F1180F0193EDB2F2
:101AD00007D8484407F0F3F984F80780002DE8D1CF
:101AE000CCE70025CBE7BA7862F3071363717B7804
:101AF000E370D8E70025D6E70546D4E700C0072005
:101B000008C007208FC5072075C40720012270B5C3
:101B1000134E0446327020B9002500232846337046
:101B200070BDFFF7B7FD05460028F5D0237903F017
:101B3000C003402B10D0A3F180014A424A41C02B80
:101B40000BD1E3784BB16178994206D06179204698
:101B50000909FFF71DFEE0E70246002AF6D1DCE79F
:101B600075C4072082B02DE9F0439146421ED2B2DF
:101B70008DB0FD2A05460E4615939DF8688005D95F
:101B800000200DB0BDE8F04302B07047002BF7D045
:101B9000179F002FF4D0199B002BF1D0189B002B1E
:101BA000EED0169B002BEBD00024482200212348C6
:101BB00007F0AAF990220021214807F0A5F9102288
:101BC0000021204807F0A0F91F4B1C605C609C605E
:101BD0001E4B1C605C609C601D4B1D701D4B1E4DA0
:101BE0001E7015AE0FCE0FC53368182221461B4854
:101BF0002B6007F089F949461722184808F06FFE54
:101C000021462046B8470028BAD0B8F1000F02D1CB
:101C1000FFF71AFDB5E706230293114B2246019305
:101C20000123FF21009304A8FFF7F4FE0028A7D0AA
:101C300004A8FFF76BFF0028A2D0E9E72AC5072018
:101C400076C407207FC5072072C5072006C5072078
:101C500000C007207EC5072060C4072012C50720EA
:101C6000B4F1010030B5182B8DB007D81D1CB2FAA5
:101C700082F418BF01256409AC4201D100200EE0B6
:101C80000293019200950A469DF84030014604A84F
:101C9000FFF7C0FE0028F1D004A8FFF737FF0DB012
:101CA00030BD13B5537914781B09009302460B46D7
:101CB00020460321FFF7D6FF02B010BD00231846CF
:101CC000044A12F8231009B10130C0B20133042BC9
:101CD000F7D170477FC507202DE9F04788B0202253
:101CE0000021684607F010F9A34B1B7803F0FF04AE
:101CF0002BBBA24F20213B696846984708B90024B6
:101D000011E09F4D6B8801336B80FFF7D7FF9DF883
:101D10000420A87202F00703032B13D0994A13780A
:101D200043F001031370FFF78FFC0422964920460D
:101D3000FFF7A2FD022295492046FFF79DFD08B05E
:101D4000BDE8F087924B9DF802E01E78B64504D1BD
:101D50008C4A137843F00203E4E78E4D2146A846EF
:101D6000C2F3C2029DF800009DF806C05FFA82F936
:101D700001EB410313F805A0824523D12B4493F8CE
:101D800001A0E2451ED19D789A70B5EB090518BFF8
:101D900001254FF001099DF80200FFF741FD9DF874
:101DA00002200270427000228270FFF7BDFCB9F180
:101DB000000F01D0002DA2D09DF80030B34233D1E6
:101DC0006C46B0E701310429D2D173490B689A708F
:101DD000724A1870934283F801C006D1C1F800809E
:101DE000864505D10025A946D5E703330B60F7E703
:101DF0008642F7D0FFF714FD0546FFF795FC2B78D8
:101E000033B19DF80530AA7803F00F039342E9DC63
:101E10009DF800302B709DF802306B709DF80530F6
:101E2000C3F30303AB70DDE79DF80180B8F1FF0F4A
:101E30001BD13B6820216846984720B9514A137846
:101E400043F0040313709DF8053003F00F02511C9A
:101E500061F303038DF80530C3F303139A42BFF611
:101E60004EAF6846FFF716FC49E746452ED1B9F15B
:101E7000000F0CD19DF807304BB13B68202168461C
:101E8000984720B93F4A137843F0040313709DF834
:101E9000043003F0C003402B12D19DF807306A468E
:101EA00023B918213E48FFF7FCFE89E70C2134488E
:101EB000FFF7F7FE002883D100216A460846F2E7C3
:101EC0009DF80330002B7FF47BAFF5E7354B1F788F
:101ED000002F3FF414AF9DF8055005F00F094FEAAD
:101EE000151AD145BFF60BAF4046FFF70BFC9DF826
:101EF000033009F1010969F303059E428DF805508D
:101F000024D19DF8043003F0C003402B03D0A3F18B
:101F100080025742574150B3C02B447820D1A0458E
:101F200012D0003418BF01243C4304F00104D0B1A6
:101F300043788DF8033085786846FFF7ABFB002CBB
:101F40003FF43EAF294607E00024EDE7002B7FF485
:101F500037AF0028ECD151466846FFF719FC2FE750
:101F60003C46E5E73C4600258DF80350E4E7C02BEE
:101F7000F8D10446D8E700BF75C4072060C4072025
:101F800006C5072074C4072076C407202AC5072089
:101F900000C0072072C5072004C007207BC50720AA
:101FA00012C507207EC5072000231846094AD1180C
:101FB000497809B10130C0B22433902BF7D1064BD8
:101FC0005A780AB10130C0B293F825300BB1013014
:101FD000C0B2704776C407202AC5072070B5174ED7
:101FE000326822B920210320FEF7A0FE3060144D94
:101FF0002A6822B920210120FEF798FE2860114CA2
:10200000216821B903220120FEF790FE20604FF4E1
:10201000FA6240F6C3112020FFF79EFAFFF77AF923
:102020001620094A012104F015FE306828B12868FD
:1020300018B12068003018BF012070BD9CC5072072
:1020400094C5072098C50720F5200100037970B5D5
:1020500003F0C003C02B0CBF0E4B0F4B01461D6895
:10206000002388B006461A462846FEF779FE044645
:1020700060B90346024669462846FEF779FF2346C3
:10208000224631462846FEF76BFE0446204608B03D
:1020900070BD00BF94C507209CC5072038B5044615
:1020A0000D46FFF7B1FC237883420AD0E37843B9A9
:1020B00008F068F9BD2300F0030000FB033005F0D1
:1020C00005F8FFF71FF9FFF711F9A9B22046FFF74E
:1020D0003DF9FFF731F9FFF71DF9FEF78DFC0228F6
:1020E00004D1034B00211868FEF70EFF012038BD14
:1020F00098C50720002307B502A941F8043D084B05
:102100001868FEF701FF019B3BB14FF08052054B71
:102110001A60BFF34F8FBFF36F8F03B05DF804FBFE
:1021200098C5072004ED00E038B504460D46FFF7DA
:1021300033F948B1A9B22046FFF73AF9FFF72CF975
:1021400008B9FFF731F9012038BD042938B5054633
:102150000DD1041C18BF012403F02AFE2CB14FF44A
:102160007A72002306F08EFA2860204638BD0024DB
:10217000F2E7FFFF00B50C4B8DB009930B4B0C4AF7
:102180000B930C4B0A930CAB43F8102D00220492D6
:102190000FCB8DE80F00084B084A01216A20FFF79A
:1021A000E1FC0DB05DF804FBDD1F010029210100F9
:1021B0004B2101009D2001004D200100BBF10100D9
:1021C00008B5FEF719FC0F4B02285B6912D15A02C1
:1021D0000CD5FFF7E9FE002300280B4814BF0122AD
:1021E0004FF0FF3219460068FEF7C2FEBDE8084016
:1021F000FFF772BD5B02F9D5FFF7D6FE0028F5D1D7
:1022000008BD00BF00C0092098C507201FB501A860
:1022100004F010FB9DF8093003F00F009DF8083022
:1022200003F01F031B0443EA40539DF8060000F02F
:102230001F0043EAC0239DF8050000F03F0043EA79
:1022400040139DF80400C0F344000343BDF80A00A6
:10225000400600F10840184305B05DF804FB30B5B6
:1022600004460D1F131B0344032B0AD822F003035B
:10227000194402F00302013B18440A44914205D17B
:1022800030BD55F8043F44F8043BEBE711F8013B3F
:1022900000F8013FF2E70244904200D1704700F895
:1022A000011BF9E7024600F10B010020C30143EADC
:1022B000500312F8010B03448A4203F0FF00F5D1EA
:1022C0007047036810B5044653B119460A4611F821
:1022D000010B1F2810D93A28F8D1591C8A4202D084
:1022E0004FF0FF3010BD1B78303BD9B20129F7D831
:1022F00001321846226010BD002010BDF8B5056BF4
:1023000000F13407044601232A463946407802F09A
:102310000EFBA0B9636AE269EB1A9342207101D304
:102320000020F8BDE678012EFAD9E36939461D444C
:102330002A460123607802F0FAFA013EF3E7012011
:10234000F8BD03790BB1FFF7D9BF18467047FFFFFF
:1023500070B50446FFF7F5FF054680BB2378032BD5
:1023600025D16379012B22D104F1340601464FF4C3
:1023700000723046FFF78FFF4AF65522A4F832224A
:102380000F4A3146626302F1FF5202F500522032D9
:10239000C4F8182262696078C4F81C222269C4F863
:1023A0002022226A0132226302F0C1FA6571002202
:1023B0006078114602F0D7FA003018BF012070BDD6
:1023C00052526141036B70B58B4205460E4611D0E7
:1023D000FFF7B7FF044610B10124204670BD01236A
:1023E000324605F13401687802F085FA0028F3D10D
:1023F0002E63F2E70024F0E7002310B503714FF0DD
:10240000FF3303630446FFF7DDFFA0B94AF6552307
:10241000B4F832229A4210D1D4F86A30084A23F034
:102420007F4393420AD0D4F8860020F07F40801A80
:1024300018BF012010BD032010BD022010BD00BF39
:10244000464154000023F0B5036085B007460846B6
:102450001546FFF736FF061EC0F2F1807D4B53F89C
:102460002640002C00F0ED80E06802F0A1FA002880
:1024700000F0E9803C6023786BB1607802F033FAB9
:10248000C10708D4002D00F0B78010F0040000D080
:102490000A2005B0F0BD0023F0B22370607002F096
:1024A0000FFAC20700F1D1800DB14307F0D400212B
:1024B0002046FFF7A1FF012840F0AC802146002212
:1024C00091F8F6310BB1D1F8FA314DF822300132E2
:1024D000042A01F11001F3D100265DF82650002DE9
:1024E00000F08C8029462046FFF786FF002840F048
:1024F0008680B4F83F30B3F5007F40F08980B4F8AF
:102500004A1001B9A16D94F84420E161531E012BDA
:10251000E2707DD894F84160A670002E78D0731ECA
:10252000334275D1B4F845E01EF00F0FA4F808E06F
:102530006ED1B4F8473003B9636DB4F84270002F20
:1025400066D04A4307EB1E101044834260D31B1A27
:10255000B3FBF6F3002B5BD040F6F576B3425BD9C4
:102560004FF6F576B34294BF0226032602332F447A
:102570002844032EA36125626762E0624ED1BEF15A
:10258000000F45D1226E9B00A26203F2FF13B1EB54
:10259000532F3DD34FF0FF33636123618023032E1C
:1025A000637122D1B4F86430012B1ED1691C20461E
:1025B000FFF708FFC8B94AF65523B4F83222607114
:1025C0009A4212D1626B244B9A420ED103F1FF530F
:1025D000D4F8182203F5005320339A4201BFD4F8EF
:1025E0001C326361D4F8203223611C4A26701388A0
:1025F00001339BB21380E38000204AE702200136BA
:10260000042E7FF46AAF032821D000283FF471AF75
:102610000D203EE70025F6E70126A7E7BEF1000FF3
:10262000F6D0022E17444FEA43021CBFD21803F023
:102630000103A7620CBF134603EB5203A5E70B206F
:1026400027E70C2025E70F2023E7032021E70120BF
:102650001FE700BFA0C5072052526141A8C507204F
:1026600010B50446A8B103689BB11A788AB1D9881D
:10267000828891420DD1D86802F09AF958B1236846
:10268000587802F030F910F0010F14BF0320002039
:1026900010BD092010BD0F2010BD50B10F2905D865
:1026A0004FF41A4323FA01F1CB0702D4C06802F0B9
:1026B00092B9704783690239023B99423DBF8378E2
:1026C000C06A01FB0300002070470129F8B50746E6
:1026D0000C464BD98369994248D20378022B29D002
:1026E000032B34D0012B41D101EB5106416A01EBA0
:1026F0005621FFF767FE10B14FF0FF30F8BD796A41
:10270000C6F3080301363B4401EB5621384693F8E3
:102710003450FFF757FE0028EED1C6F308063E44BA
:1027200096F83400E30745EA00204CBF0009C0F3E7
:102730000B00F8BD416A01EB1421FFF743FE0028AE
:10274000DAD1660006F4FF763E44B08EF8BD416AE9
:1027500001EBD411FFF736FE0028CDD1A40004F41C
:10276000FE743C44606B20F07040F8BD0120F8BD61
:1027700070B5044682680D46012AE18001D102202D
:1027800070BD036899698A42F9D2BAB919780329E8
:1027900001D1996A99B919898D42F0D2986AE2609B
:1027A0000028ECD0236800EB1510343305F00F053A
:1027B00003EB451520616561002070BD11460A4696
:1027C0009E783601B5421146206802D2FFF772FFAB
:1027D000E5E7FFF77AFF431C024607D00128CED970
:1027E00023689B699842CAD2AD1BEBE7012070BDFC
:1027F0000129F8B505460C46164660D98369994209
:102800005DD20378022B3AD0032B45D0012B54D153
:1028100001EB5107416A01EB5721FFF7D3FD18BBCC
:10282000C7F3080314F001042B4417BF93F83420B6
:10283000F2B202F00F0132011CBF02F0F0020A43B3
:1028400083F834200123696A01372B7101EB57218A
:102850002846FFF7B7FD38B9C7F308072F4434B14E
:10286000C6F3071687F8346001232B71F8BD97F87B
:102870003430C6F3032623F00F031E43F2E7416A08
:1028800001EB1421FFF79EFD0028EDD1640004F454
:10289000FF742C44A686E7E7416A01EBD411FFF7E9
:1028A00091FD0028E0D1A40004F4FE7434342B59C7
:1028B00003F070431E432E51D6E70220D4E70220D6
:1028C000F8BDF8B505460F4671B90669E6B18369EA
:1028D0009E4228BF01263446AB6901349C4216D380
:1028E000012E13D8002408E0FFF7EFFE012804466C
:1028F00035D9013003D14FF0FF342046F8BDAB6924
:102900009C42FAD33E46E6E70126E4E7022421464C
:102910002846FFF7DAFE30B1411CECD001281ED06A
:10292000B442D9D1DEE76FF0704221462846FFF766
:102930005FFF90B957B96B692C615A1CDDD0013B20
:102940006B616B7943F001036B71D6E72246394620
:102950002846FFF74DFF0028EDD00128CBD00124F9
:10296000CBE72DE9F843C68804460136B3B2894661
:1029700013B90420BDE8F8830369002BF9D016F0E1
:102980000F0807D1C16801330361006859B9038991
:102990009E42EED22368E680343303EB4813636132
:1029A0000020BDE8F8838778013F17EA1617F1D1B8
:1029B000FFF78BFE0128054602D80220BDE8F88308
:1029C000421C02D10120BDE8F883206883699D4242
:1029D00027D3B9F1000FCCD0E168FFF772FF0546AD
:1029E000002831D00128E8D0431CEBD02068FFF745
:1029F000A8FC01460028E5D120684FF4007234306D
:102A0000FFF749FC226829461046FFF753FE4FF0B6
:102A100001091063206883789F4209D3036BDF1B91
:102A20000763E56029462068FFF744FE2061B1E7AF
:102A300080F80490FFF762FC0028C3D122680137B8
:102A4000136B01331363E5E70720BDE8F883FFFF4D
:102A50002DE9F74F4FF0FF084FF6FF770646444643
:102A6000078431693068FFF7ADFC824600285ED1EB
:102A700075692B78002B76D0E52B06D0E97A01F02A
:102A80003F02090703D50F2A03D0378447E00F2AF6
:102A900054D1D6F81CB0BBF1000F41D058063CD53C
:102AA00003F0BF04F38895F80D8033846B7B4345B6
:102AB00035D195F800A001202AF0400A0AF1FF3331
:102AC0004FF00D0A4FF000090AFB03FA274B19F8E3
:102AD0000320AA5A78B3104601F0AAFFBAF17F0F7B
:102AE00001901CD80AF101023BF81A00009201F093
:102AF0009FFF0199814212D1009A924609F1010982
:102B0000B9F10D0FE2D12B78590603D510B13BF87E
:102B10001A3023B9013CE4B202E0A342C6D0FF243C
:102B200000213046FFF71DFF8246002899D050460D
:102B300003B0BDE8F08FBA42E0D0F0E724B92846F0
:102B4000FFF7B0FB4045F2D0B369DA7AD2079CD4E4
:102B500003F10B009842EAD015F8011B13F8012B82
:102B60009142F7D091E74FF0040AE0E740F201000C
:102B70002DE9F74F0B7807462F2B884601D05C2BA9
:102B800001D108F101080024BC6098F800301F2B27
:102B900000F2908021463846FFF7EAFD7C6103B0E1
:102BA000BDE8F08F25F8020F464693E02028A044A8
:102BB00034BF042400240BEB4602002E00F0A98051
:102BC00032F8021D202902D02E2940F0A680013EB5
:102BD000F3E701313BF81120202AFAD02E2AF8D051
:102BE00009B144F003044A4632F8020D2E2801D000
:102BF000013EF9D14FF0000A4FF0080955463BF865
:102C000011004A1C002800F09F80202804D02E28A4
:102C100006D1B24200F08D8044F003041146EEE785
:102C2000CA4580F08980B24211D1B9F10B0F06D1AB
:102C300086E0B24203D044F0030400F28580AD0088
:102C4000EDB232464FF00B094FF0080AE6E77F2855
:102C50000DD90021019201F0CDFE019A18B15D4B12
:102C6000184410F8800C80B244F0020438B15A4B7A
:102C700013F8011F002900F09F808142F8D15F20E6
:102C800044F00304B96901F80A000AF1010AC5E732
:102C900045F00205F6E75A0781D47A69D37ADB0654
:102CA00039D53968538B0978032904BF928A43EADE
:102CB0000243BB6098F8003044462F2B08F101080E
:102CC000F8D05C2BF6D00026D7F81CB004F1FF3901
:102CD000ABF1020519F8010F06F101081F287FF674
:102CE00065AF2F283FF462AF5C283FF45FAFB8F1C7
:102CF000810F0ED0012101F07DFE50B17F283FF6FB
:102D000051AF364911F8012F002A3FF44BAF8242F0
:102D1000F8D1062043E7052041E7002520212BF8C4
:102D200016500B22B869FFF7B6FA0BEB4609294695
:102D300050E7CA45FFF479AFB9F10B0F7FF479AFD3
:102D40004FF00B0944F00304BB691A78E52A04BF6D
:102D500005221A70B9F1080F04BFAD00EDB205F0FD
:102D60000C030C2B03D005F00302032A01D144F01D
:102D70000204A10709D405F00305012D08BF44F0A2
:102D80001004042B08BF44F00804BB690021DC7266
:102D90003846FFF7EDFC10B93846FFF759FEBB691E
:102DA000DB7A00283FF477AF04287FF4F8AE13F005
:102DB000040F08BF0520F2E6A0F1410119297FF6B2
:102DC00067AFA0F1610119299EBF203845F00105C8
:102DD00080B257E7C0F10100A0F2010097F20100B4
:102DE0000C222DE9F043866987B0C7690446314655
:102DF0000DEB0200FFF733FA9DF81730DB0779D5AA
:102E000000234FF00109DFF80882F372E3610B221F
:102E100003A93046FFF723FAB9F1050F4FD84B4607
:102E2000072203F00F0000F13001392988BF00F1BB
:102E30003701013A01A810441B094170F1D17E20ED
:102E400006A9114401F8140C9A423DD0F15C2029E6
:102E500038D13344072A8FBF202106A9891811F8D9
:102E6000141C98BF013203F8011B991B0729F1D9E3
:102E700000212046FFF77CFC0546A8BB2046FFF753
:102E8000E7FD054680BB09F10109B9F1640FBED128
:102E90000725284607B0BDE8F083102102F00105A0
:102EA00005EB4303DD0348BF83EA080301394FEA1A
:102EB0005202F3D130F8022F002AEED1B0E7B81E4B
:102EC0004B46F7E70133BFE71346C2E7013616E08A
:102ED00001261CE0074601212046FFF742FD05467A
:102EE000E8B1042DD4D0D4E7042DD2D19DF8173009
:102EF000F372E7619DF817309B07E9D5002637F894
:102F00001630002BE2D10D231936B6FBF3F6002163
:102F10002046FFF72DFC05460028E2D1074621692F
:102F20002068FFF74FFA05460028DAD163691B785D
:102F3000E52B01D0002BCDD10137BE42CBD1013ED4
:102F400049D0E1882046891BFFF712FC054600287E
:102F50009FD1A069FFF7A6F94FF6FF790746DFF882
:102F6000B48021692068FFF72DFA0546002890D12A
:102F70000F226369D4F81CE0DA720D22F1B24D1E03
:102F80006A4305465F7318735883484518BF3EF877
:102F9000120015F808C005F1010518BF013223F829
:102FA0000C00002808BF48460D2DEED1484502D040
:102FB0003EF812200AB941F040010122197023683D
:102FC00000211A712046FFF7CCFC054600287FF44B
:102FD00060AF013EC5D121692068FFF7F3F90546CE
:102FE00000287FF456AF202229466069FFF753F985
:102FF0000B22A1696069FFF732F9A3696269DB7A84
:1030000003F018031373012223681A7141E700BF0C
:103010002110010040F20100012970B504460D465F
:1030200001D8022070BD83699942FAD2A3699D42FA
:1030300005D229462046FFF748FB064608B900207E
:1030400070BD0128EDD0411C10D000222946204639
:10305000FFF7CEFB58B963695A1C05D00133636191
:10306000637943F0010363713546DFE7012070BDEA
:10307000F0B585B0019004A840F8041D00911646F3
:10308000FFF71FF9051E2ADB174F57F825404CB1F3
:10309000E06801F08BFC18B90224204605B0F0BDB1
:1030A00000232370019989B9019C47F82540002C21
:1030B000F3D0012E15D16946002201A8FFF7C2F90D
:1030C000044601460198FFF7E8FAE6E70023E8B274
:1030D00001F80C3B01F060FC0028DDD0E4E70B2494
:1030E000DBE70024D9E700BFA0C507202DE9F043A6
:1030F000D1B0019190460646002800F08C80002354
:1031000002F01E02036001A906A8FFF79BF905461D
:10311000002874D103AB0C9301990FAB06A80D9353
:10312000FFF726FD0B9C10B9002C08BF062018F0F5
:103130001C0F08F01F073DD098B3042802D106A841
:10314000FFF74EFE47F0080748BB0B9C38073BD5FE
:10315000FFF75CF80023C4F80E000698E372E36101
:103160000278B4F81A80032A08BFA28A6383A38274
:103170004FF0010308BF48EA02480371B8F1000F9D
:1031800022D04146D0F83090FFF746FF38B9069874
:1031900008F1FF3303614946FFF714F9A0B1054672
:1031A0002DE0E37A13F0110F33D118F0040FCDD0D6
:1031B000082524E00028F2D1E37AD90627D418F0B4
:1031C000020F01D0DA0724D43B07069B48BF47F023
:1031D00020071A6BB771F26100223462F27119781C
:1031E000628B032904BFA18A42EA01423261E2698B
:1031F0003360F2600022DB88B260B261B38029469E
:103200000698FFF74AFA284651B0BDE8F083042536
:10321000F5E70725F3E70925F5E72DE9F74F9B4685
:103220000023CBF80030044689461646FFF718FA0B
:10323000054610B1294620684AE0E17939B1206895
:10324000FFF72BFAE579284603B0BDE8F08FA379A4
:10325000D80705D407212068FFF71FFA0725F2E7F2
:10326000E368A768DF1BB74228BF374604F1240391
:1032700000930FB93946DEE7A268C2F30803002BBA
:1032800074D120688378013B03EA522313F0FF03D3
:1032900011D12AB92069012808D80225E571C9E7AA
:1032A00061690193FFF711FA019BF4E7411C01D119
:1032B0000125F3E76061D4F800A0616950460193ED
:1032C000FFF7F8F9019B30B9022550462946E57110
:1032D000FFF7E3F9B7E77E0A00EB030829D09AF875
:1032E00002209919914288BFD61AF3B24246494644
:1032F0009AF8010001F0FFFA0028D9D1A3795A0603
:103300000BD5A069A0EB0800864206D94FF40072E5
:10331000009909EB4020FEF7A2FF7602A368B144B2
:103320003344A360DBF80030BF1B3344CBF80030DC
:103330009FE7A269904517D0A3795B060BD50123BF
:1033400000999AF8010001F0F2FA0028B0D1A379AF
:1033500023F04003A371206801234246009940787E
:1033600001F0C9FA0028A3D1C4F81880A168484622
:10337000C1F30801C1F50076BE4228BF3E462431A4
:1033800032462144FEF76BFFC8E72DE9F74F9B4615
:103390000023CBF80030044689469046FFF760F9D9
:1033A000054610B12946206868E0E17939B1206806
:1033B000FFF773F9E579284603B0BDE8F08FA379EC
:1033C000990705D407212068FFF767F90725F2E779
:1033D000A36813EB080F05D204F124030193B8F19D
:1033E000000F0AD1A368E268934200F2A280A37999
:1033F000002143F02003A371D5E7A268C2F30803BC
:10340000002B40F0838020688378013B03EA52233D
:1034100013F0FF03009316D15AB9216921B9FFF7C0
:1034200050FA01460028DDD0012904D10225E571BA
:10343000B8E76169F3E74A1C01D10125F7E7236981
:10344000616103B92161A3795B060CD52068012372
:10345000A2690199407801F06AFA0028EDD1A379B8
:1034600023F04003A371D4F800A061695046FFF730
:1034700021F930B9022550462946E571FFF70DF9CB
:1034800099E7009B5FEA582600EB03072DD0009ACE
:103490009AF8023032449A4288BF009A494688BF5F
:1034A0009E1AF3B23A469AF8010001F040FA002859
:1034B000C3D1A169C91B8E420AD94FF4007209EB2E
:1034C00041210198FEF7CBFEA37923F04003A371BD
:1034D0007602A368B1443344A360DBF80030A8EB64
:1034E00006083344CBF8003079E7A3699F420CD03B
:1034F000A268E3689A4208D201233A4601999AF8F1
:10350000010001F0F8F9002897D1A761A0684946A9
:10351000C0F30800C0F50076464528BF4646243073
:1035200032462044FEF79BFEA37943F04003A3718B
:10353000CFE7E3605BE770B50446FFF791F8054617
:10354000002838D1A3799A0635D55B0613D52068B3
:103550000123A26904F12401407801F0E8F930B1B7
:1035600001212068FFF799F80125284670BDA3794D
:1035700023F04003A371E1692068FEF723FF0546AD
:10358000C8B9266AF37A43F02003F372E368F36163
:10359000236973831B0CB382FEF738FE7582C6F86D
:1035A0001600A379206823F02003A371012303717F
:1035B000FEF7CEFE054629462068FFF76EF8D4E7F1
:1035C00038B50546FFF7B7FF044648B92846FFF768
:1035D00047F8044620B9286821462C60FFF75DF8BB
:1035E000204638BDF8B504460E46FFF739F80546C3
:1035F00010B1294620686AE0E17929B12068FFF717
:103600004CF8E5792846F8BDE368B34204D2A279C4
:1036100012F0020F08BF1E460022A368A260002E0F
:1036200030D1A368E2680021934281BFE360A379AF
:1036300043F02003A371DDE70026A368C3F308036A
:10364000002BEED0A2699642EBD0A37904F12407B7
:1036500013F0400F0BD0206801233946407801F069
:1036600066F9002842D1A37923F04003A3712068B2
:10367000012332463946407801F03DF9002835D122
:10368000A661CEE7206887787F021BB3013B721EDC
:10369000B2FBF7F2B3FBF7F18A421BD37A42134035
:1036A0006169A360F61A0029C6D0BE4223D8A36878
:1036B0003344A360C6F30803002BBDD02268104634
:1036C000FEF7F8FF90BB022510462946E571FEF78C
:1036D000E4FF97E7216961B9FFF7F3F80128014694
:1036E00002D10225E57184E7013001D10125F9E716
:1036F00021616161D7E7A37920689A0705D5FFF7B3
:10370000E0F8014620B93E46D1E7FEF7DEFF01466C
:103710004B1CEBD00129E4D923689B699942E0D284
:10372000A36861613B44A360F61BBEE700EB56262D
:1037300083E72DE9F347144602AB43F8040D8846AE
:10374000204600221946FEF77DFE2468054630B962
:10375000A7696369BA1E934209D8C8F800302046A9
:103760002946FEF79AFF284602B0BDE8F08794F894
:103770000090B9F1010F17D10227064639462046BD
:10378000FEF7A3FF431C32D0012832D000B9013626
:10379000A36901379F42F1D36379666143F0010366
:1037A0006371C8F80060DAE7034602460646616ABC
:1037B00052B9204601F1010AFEF704FED8B951467C
:1037C0004FF4007204F13403B9F1020F07D11888E5
:1037D00000B901360233023A013FE9D1DCE718684B
:1037E000043A30F0704008BF01360433F4E7012595
:1037F000D2E70225D0E70546CEE7FFFF2DE9F04FDF
:1038000089B008AB43F80C0D18460E461546FEF776
:1038100058FD0028C0F2F781012E00F2F6816B1EE0
:103820002B40029340F0F181504B53F82040002C84
:1038300000F0ED819DF80830C7B22370384601F0E2
:103840003FF8C20700F1E581430700F1E48107AAD0
:103850000121384601F087F818B1012009B0BDE810
:10386000F08F07997F29F8D9002E14BF4FF0000A76
:103870004FF03F0AA1EB0A0107915DB94FF4FA63DB
:10388000B1FBF3F33A4830F81520934218D3394B83
:1038900033F815506D0A15D0802D28BF8025B1FB57
:1038A000F5F340F6F572934240F2F8814FF6F57267
:1038B000934200F2B28102335B004FF00208F4E160
:1038C0000135E0E70125EAE706AA0321384601F0C1
:1038D0004AF820B9069B013BB3F5004F01D3012301
:1038E0000693069AB8F1030F02F1FF334B44C2F17D
:1038F000000203EA0203A3EB0903069322D1019A13
:103900009B441A440192079A0099A2EB0B035B1A9D
:103910000399B8F1020FA3EB0103B3FBF5F3049392
:1039200014D140F6F5730499994240F2D581B2F56D
:10393000803F34BF4FF004094FF006094EB34FF0FB
:10394000F0095DE0009A1A440092DCE7B8F1030F39
:1039500012D14FF6F573049A9A4240F2BD81002EBF
:1039600040F067814FF00C0913E000BFA0C50720AD
:10397000A8F201004EF20100B8F1010FD7D1B2F563
:10398000803F34BF4FF001094FF00609002E40F090
:103990006B8104F134064FF4007200213046FEF7CB
:1039A0007AFCFE2143F6C160DDF81CE084F8F711D3
:1039B0000AEB0E01B1FBF0F18808069184F8F911C9
:1039C0003F2101230022C4F8FA114AF6552140F0A4
:1039D0003F0084F8F801A4F8321284F8F33184F837
:1039E000F43184F8F52184F8F691C4F8FEE131460B
:1039F000384600F09CFF00287FF42FAF4FF0F80905
:103A000004F134064FF4007200213046FEF743FC07
:103A10000B22B2493046FEF722FC4FF40073A4F8A3
:103A20003F300123B8F1030F84F84430029B18BFE4
:103A30004FF4007384F84150A4F842B00293BDF8EB
:103A4000083084F84990A4F84530079BC4F850A08A
:103A5000B3F5803F34BFA4F8473063653F23A4F833
:103A60004C30FF23A4F84E30FEF7D0FBB8F1030F23
:103A7000069040F09C80009B1322A36502232366DE
:103A80000123A4F864300623A4F86630802384F868
:103A9000743029239249C4F8770084F8763004F111
:103AA0007B00FEF7DCFB4AF655235246A4F832327F
:103AB00031460123384600F03AFF00287FF4CDAEAE
:103AC000B8F1030F06D101230AF106023146384648
:103AD00000F02DFF4FF4007200213046FEF7DBFBB3
:103AE000B8F1030F74D0B8F1010F7E4B18BF6FF01F
:103AF000FF0343EA090306936363019B314603F125
:103B00000109019A0123384600F011FF01460028FF
:103B10007FF4A3AE4FF400723046FEF7BCFB0123E6
:103B20000693069B009A9A425DD8039B4A46B8F1D9
:103B3000030F18BF1D464D4401233146384602F19C
:103B4000010B00F0F4FE00287FF487AEAB455A4627
:103B5000F2D1B8F1030F21D1634B3146636303F116
:103B6000FF5303F500532033C4F81832049B384642
:103B7000013BC4F81C320223C4F820324AF6552314
:103B8000A4F8323201230AEB030200F0D0FE012335
:103B90000AF107023146384600F0C9FE00223846D5
:103BA000114600F0E0FE003018BF012056E6BDF8D7
:103BB0000030C4F85B00A4F84A30802384F8583001
:103BC0002923132284F85A30484904F15F0068E73A
:103BD00069F0FF03069363634FF0FF33A3636FF055
:103BE0007043E36389E701234A463146384609F1C9
:103BF000010B00F09CFE00287FF42FAE069BD946F7
:103C0000013306938DE70B2028E6132026E60C20CF
:103C100024E6032022E60A2020E69B0003F2072385
:103C20005B0A009300234FF0030803934FF0200B2F
:103C300043E004F134064FF4007200213046FEF7F1
:103C40002AFB0B2225493046FEF709FB4FF400738F
:103C5000A4F83F30012384F84150A4F842B084F81E
:103C600044304FF0F009EAE604F134064FF40072F4
:103C700000213046FEF70FFB0B2218493046FEF7B5
:103C8000EEFA4FF4007384F84150A4F83F30A4F8E2
:103C900042B084F844804FF0F009CFE64FF00108BD
:103CA00003EB430301335B08033303F2FF135B0AA7
:103CB000009320234FF0010B03930BEB0A030193B6
:103CC000039A009B03EB0209019B9944A5EB0A03AD
:103CD0004B449942BFF4F8AD0E20BFE564F20100F9
:103CE00070F2010000FFFF005252614184F20100B6
:103CF00008B502F05DF84FF47A72002304F0C2FCBC
:103D000008BDFFFF10B5044602F0CCF9074BB0FB2D
:103D1000F3F00223B0FBF3F2944202D3044A13619E
:103D200010BDB3F5807FF9D00233F3E740420F00B6
:103D300000000340034B9860DA68D206FCD4986810
:103D4000C0B270470000034070B5FFF7D1FF00F527
:103D5000FA74FF20FFF7EEFF0025FF20FFF7EAFFD0
:103D6000FF28064605D0FFF7C3FFA94208BFA042BF
:103D7000F3D3304670BDFFFF38B54FF00075054CEA
:103D8000E561FFF7E1FF044AA561137843F0010301
:103D9000137038BD20C0092009C007202DE97043E9
:103DA00006460D46FFF7A4FF643080464FF0000939
:103DB000FF20FFF7BFFFFF2808D1FFF799FF494514
:103DC00008BF4045F4D30020BDE87083FE28FAD137
:103DD000102D0ED900224FF40071304603F03EF84A
:103DE000FF20FFF7A7FFFF20FFF7A4FF0120BDE89A
:103DF0007083341D0435FF20FFF79CFF04F8040C8A
:103E0000FF20FFF797FF04F8030CFF20FFF792FF56
:103E100004F8020CFF20FFF78DFF043404F8050CB2
:103E20002B1BDE42E7D1DBE770B506460D46FFF7F8
:103E30008BFFFF28044619D12846FFF77BFFFD2D95
:103E400016D022464FF40071304603F007F82046A2
:103E5000FFF770FF2046FFF76DFF2046FFF76AFF70
:103E600000F01F00431F5842584170BD002070BD34
:103E7000012070BD020638B504460D4607D5002165
:103E80007720FFF7F7FF012836D804F07F044FF0C2
:103E900000721A4B9A61DA61FFF756FFFF282AD1A8
:103EA0002046FFF747FF280EFFF744FFC5F3074002
:103EB000FFF740FFC5F30720FFF73CFFE8B2FFF72D
:103EC00039FF402C15D0482C14BF01208720FFF764
:103ED00031FF4C2C02D1FF20FFF72CFF0A21FF20DD
:103EE000FFF728FF030607D5013911F0FF01F6D1CE
:103EF00038BD9520EBE7FF2038BD00BF20C009206A
:103F0000064A074913784969DBB2490154BF03F0F7
:103F1000FD0343F003031370704700BF09C007207F
:103F200020C009202DE9F743FFF7EAFF554B1A7827
:103F30001E4612F0020F04D01878C0B203B0BDE8DC
:103F4000F0830120FFF7DEFE0A24FF20013CFFF78B
:103F5000F1FE14F0FF04F8D14FF000734A4F2146F0
:103F6000FB614020FFF786FF0128804613D04FF009
:103F70000008464B83F800804FF00073BB61B8F136
:103F8000000F7BD03378182003F0FE033370FFF767
:103F9000B9FE3078D1E7FFF7ABFE4FF4D57100F5ED
:103FA0007A754820FFF766FF012840D10DF104081B
:103FB000FF20FFF7BFFE08F804000134042CF7D1FE
:103FC0009DF80630012BD2D19DF80730AA2BCED117
:103FD0002C460025FFF78CFEA94208BFA0421ED345
:103FE000FFF786FEA94208BFA042C0D200217A2076
:103FF000FFF740FF0028BAD10146FF20FFF79AFEE5
:1040000008F8010001310429F7D19DF8043013F0BC
:10401000400F14BF4FF00C084FF00408A9E74FF011
:104020008041E920FFF726FF0028D3D1D8E72146B9
:10403000E920FFF71FFF02282C4636BF4FF0E909A1
:104040004FF041094FF002080025FFF751FEA94249
:1040500008BFA0420BD3FFF74BFEA94208BFA04206
:1040600087D34FF400715020FFF704FF81E7002150
:104070004846FFF7FFFE0028E7D1ECE7FFF77CFE9C
:1040800087E700BF09C0072020C00920AAC5072074
:1040900008B5FFF735FF014B187808BD09C00720A8
:1040A00070B5144606460846FFF72AFF002C38D0A4
:1040B0001E4B1B78DA0736D44FF000721C4DEA61B4
:1040C0001C4A1278130758BF4002012C014612D136
:1040D0005120FFF7CFFE38B94FF400713046FFF79B
:1040E0005DFEB0FA80F464094FF00073201CAB61F0
:1040F00018BF012070BD5220FFF7BCFE0028F3D18D
:104100004FF400713046FFF749FE28B1013C14F02E
:10411000FF0406F50076F3D100214C20FFF7AAFE3C
:10412000E2E7042070BD032070BD00BF09C0072076
:1041300020C00920AAC50720F8B5144606460F4638
:10414000FFF7DEFE002C44D0254B1A78D10742D46D
:104150001B785A0741D44FF00072224DEA61224A7F
:104160001278130758BF7F02012C12D1394658200C
:10417000FFF780FE58BBFE213046FFF755FEB0FA30
:1041800080F464094FF00073201CAB6118BF01205C
:10419000F8BD12F0060F03D02146D720FFF76AFEC4
:1041A00039465920FFF766FE0028EBD1FC21304646
:1041B000FFF73AFE28B1013C14F0FF0406F5007643
:1041C000F4D1FD210020FFF72FFE0028DAD10124D1
:1041D000D8E70420F8BD0320F8BD0220F8BD00BFD9
:1041E00009C0072020C00920AAC507207FB50D46B9
:1041F000FFF786FE05281AD12B78012B15D005D3A1
:10420000022B0BD00424204604B070BD7B4B5C69AC
:1042100014F0806409D1FFF7AFFDF4E7774B5B69D9
:1042200083F08063C3F380636B700024EBE7744B0F
:104230001B78DB0700F1E0800E2800F2DB80DFE86E
:1042400000F00817555AD9D9D9D9D9D9A7ABBABDD1
:10425000CD004FF00072694BDA61FFF775FDB0F1E8
:10426000FF0418BF01244FF00072644B9A61CAE743
:1042700000214920FFF7FEFD044608B10124F2E7C2
:1042800010216846FFF78AFD0028F7D09DF800301E
:104290009DF808109B09012B9DF8093006D15A1C86
:1042A00002EB012292B292022A60DCE79DF807201D
:1042B0009DF80A00920002EB91129DF8061001325F
:1042C000890201F440610A449DF805105B0001F089
:1042D0000F0101EBD011023103F006030B44DBB2F6
:1042E00092B2093B02FA03F32B60BCE74FF4007370
:1042F0002B800024B7E7434E317811F004011CD025
:104300000021CD20FFF7B6FD0028B7D1FF20FFF731
:1043100011FD10216846FFF741FD0028AED0302482
:10432000FF20FFF707FD601E10F0FF04F8D19DF895
:104330000A301A0910239340D6E74920FFF79AFD67
:10434000044600289AD110216846FFF727FD00286F
:1043500094D030789DF80A3010F002009DF80B10D0
:104360000AD05B009DF80D2003F07E0303EBD11310
:1043700092090133013ADEE7CA0002F01802C3F3E2
:10438000840302EB5112013302FB03332B60B0E7CD
:104390001C4B1B782B70ACE700214920FFF76AFD0E
:1043A00000287FF46BAF10212846FFF7F7FCB0FA26
:1043B00080F4640957E700214A20EFE700217A20C2
:1043C000FFF758FD00287FF459AF291DFF20FFF7A4
:1043D000B1FC05F8010B8D42F8D18AE70021CD2010
:1043E000FFF748FD00287FF449AFFF20FFF7A2FC4C
:1043F0004021D9E7042436E7032404E720C009203C
:1044000009C00720AAC50720054B1B78253BDBB256
:10441000032B9ABF034A52F823000020704700BFC5
:10442000B0C50720C8F201001B4B2DE9F0411D88E3
:104430000646B5F5007F0F46144603D12A462146AD
:1044400038460BE0B5F5807F0CD12A462146384628
:10445000B0472A4604F5807107F580703346BDE801
:10446000F0411847B5F5047F04D1510A89024FF491
:104470000072E5E7B5F5847F0BD1140A61024FF4B1
:1044800080723846B0474FF4807201346102B81828
:10449000E4E7BDE8F08100BFB2C5072010B5294BA5
:1044A00000294DDD0729027829DD9A604278083914
:1044B0009A6082789A60C2789A6002799A604279AA
:1044C0009A6082799A60C47900F108029C609C69C4
:1044D0006407FCD59C6804709C6844709C68847078
:1044E0009C68C470DC68E406FCD49C6804719C6819
:1044F00044719C6884719C68C4711046D0E703299C
:1045000014DD9A60427804399A6082789A60C4789F
:10451000021D9C60DC68E406FCD49C6804709C6806
:1045200044709C6884709C68C470E6E7441C9A6080
:104530000139DA68D206FCD49A6802702046AFE7E7
:1045400010BD00BF0000034007B50B0C8DF805300F
:104550008DF807100B0A04218DF804000DEB010003
:104560008DF80630FFF79AFF03B05DF804FBFFFFFC
:10457000F7B5032340250E4C1746E5618DF804304E
:104580000B0C8DF805308DF807100B0A0421064638
:104590000DEB01008DF80630FFF780FF0022394651
:1045A000304602F05BFCA561A561A56103B0F0BDDA
:1045B00000C0092040220D4BDA61D7220C4B9A60D3
:1045C000DA68D206FCD40A4A9B68FF211346916040
:1045D000D868C006FCD4986810F0800FF7D040224D
:1045E000024BC0B29A619A619A61704700C009207B
:1045F00000000340F7B5FFF7DDFF002340271E4C06
:104600001E4E23801E4BF7611A889B7805460321B6
:1046100001A8ADF804208DF80630FFF73FFF9DF8A4
:1046200005209DF806301F2AB761B761B76115D123
:10463000A3F12502032A11D8124A252B137005F085
:10464000010011D1002814BF4FF480734FF484731C
:104650002380FFF7D9FE0C4B400A18602088B0FA7F
:1046600080F0400903B0F0BD002814BF4FF4007380
:104670004FF40473ECE700BFB2C5072000C0092067
:10468000BEF20100B0C50720ACC507202DE9F041FE
:104690008B1817460F4A013B12680446934212D802
:1046A0004D020026FFF786FFDFF82C802D1BBE424F
:1046B00004EB05020ADA21464046FFF7B5FE04F591
:1046C00000740136F3E70120BDE8F0810020BDE869
:1046D000F08100BFACC50720714501008B182DE9A2
:1046E000F04117460E4A013B1268934211D8044626
:1046F0000026DFF83080C0EB4125BE4204EB050206
:104700000ADA21464046FFF78FFE04F500740136B1
:10471000F3E70120BDE8F0810020BDE8F08100BF93
:10472000ACC507200948010008B5072805D8DFE80F
:1047300000F0060A0F1308080808042008BDFFF758
:1047400039FF002008BDFFF75FFE400A0860F8E768
:104750004FF400730B80F4E701230B60F1E7FFFFD8
:1047600070B590B003466A466E4600F140051446A7
:1047700018685968083303C4AB422246F7D1402475
:10478000074D0021EC619B20FFF7DEFE21463046FD
:10479000FFF784FEAC61AC61AC6110B070BD00BFCE
:1047A00000C0092070B540240646074D002177203F
:1047B000EC61FFF7C9FE21463046FFF76FFEAC61A2
:1047C000AC61AC6170BD00BF00C0092008B5064BEC
:1047D000198831F01F0104D0FFF716FEB0FBF1F08D
:1047E00008BD084608BD00BFB2C50720014B1888A8
:1047F000704700BFB2C50720024B1878003018BFC1
:1048000001207047B2C507204FF0FF332DE9F74371
:104810000F46914601938046FFF7CCFEFFF7ECFF71
:104820000646B8B14025194C194BE5611B88032099
:10483000B3F5847F0CBF4FF480714FF4007139439E
:10484000FFF782FE04210DEB0100FFF727FEA561B3
:10485000A561A56140230D4C39468220E361FFF735
:1048600073FE01224946404602F0F8FA3EB1019B30
:1048700002A8013340F8043D0421FFF70FFE402356
:10488000A361A361A36103B0BDE8F08300C0092068
:10489000B2C5072037B540250421074B074C1868DF
:1048A0000190E5610DEB0100FFF7F8FDA561A56141
:1048B000A56103B030BD00BFC1F2010000C00920F6
:1048C00010B5044602F092FA1CB1012C08D0042461
:1048D00002E0FFF78FFE044602F0A0FA204610BD6A
:1048E000FFF720FBF7E728B1012801D0042070472B
:1048F000FFF7CEBB7047F8B507460C4615461E4677
:1049000002F074FA1FB1012F0BD0042405E03246E7
:1049100029462046FFF7BAFE044602F07FFA2046F9
:10492000F8BD324629462046FFF7BAFBF4E7F8B552
:1049300007460C4615461E4602F058FA1FB1012FD5
:104940000BD0042405E0324629462046FFF7C6FE78
:10495000044602F063FA2046F8BD32462946204656
:10496000FFF7EAFBF4E770B506460C46154602F081
:104970003DFA1EB1012E0AD0042404E02946204647
:10498000FFF7D2FE044602F049FA204670BD2946E0
:104990002046FFF72BFCF5E710B501200C46FCF78D
:1049A00061FA2060003018BF012010BD012070475F
:1049B00010B50446FCF720F802280AD100234FF076
:1049C000FF3219462046FCF7D3FA431E584258419D
:1049D00010BD012010BD10B50446FCF70DF80228EB
:1049E00007D100232046BDE810401A461946FCF7BF
:1049F000B7B910BD7F2810B516D931B1FF2812D82C
:104A00000A4B803833F8100010BD084A32F81140C4
:104A10008BB2844203D001318029F7D10B4603F1D8
:104A20008000C0B210BD002010BD00BFD8F2010050
:104A30000023064931F8132022B1824203D1044AEF
:104A400032F8130070470133F4E700BFD8F30100D8
:104A5000B8F5010013460A460179006801F027BD48
:104A60001FB5002204AB23F8042D02220479009222
:104A700000680A46214601F003FD9DF80C009DF8F0
:104A80000D3043EA002004B010BD10B504461922D1
:104A90002A21FFF7DFFF0D222179206801F0DCFCDD
:104AA000A0F12A035842584110BDFFFF044A138861
:104AB0001F2BDFBF581C1080024A42F8231070479A
:104AC00034C60720B4C50720F0B5154E3388012B36
:104AD00023DD144A00201546013B984208DA52F8BB
:104AE000041F013052F8044C091B42F8041CF4E77F
:104AF00000214FF0010E0C46686800EB50008AB2AE
:104B0000934208DD55F822700131B8423CBF0EFADD
:104B100002F21443F3E7044B1C6000233380F0BD22
:104B200034C60720B4C5072038C6072008B50121C0
:104B3000022001F0CBF8084B01209A6A22F007020C
:104B40009A629A6A42F006029A62044AD36843F073
:104B50003003D36008BD00BF0080004000C00240A9
:104B600008B5044B417101F07F015A5C0321FFF746
:104B700071FF08BD98F7010008B5044B817101F081
:104B80007F015A5C0221FFF765FF08BD98F701001D
:104B900038B504460179006801F0A1FC054688B1EA
:104BA000002206212046FFF755FF0022072120465C
:104BB000FFF750FF2E212046FFF7D2FF2E2120467F
:104BC000FFF7DAFF284638BD70B56424B1FBF4F373
:104BD00003FB14140A21E4B2B4FBF1F501FB154107
:104BE0003031C9B20646FFF7C7FF092C88BF05F16F
:104BF00030013046BDE8704094BF2021C9B2FFF7B4
:104C0000AFBF01207047FFFF38B50C460546FBF7E4
:104C100059FB012204F00F032B700E4B14F0010F0F
:104C200014BFDA619A61022214F0020F14BFDA6134
:104C30009A61102214F0040F14BFDA619A614FF4E4
:104C4000807214F0080F14BFDA619A61BDE8384031
:104C5000FBF748BB20C0092038B504460D46FBF7DA
:104C600031FB01212378013DA9401943C9B22170CC
:104C70002046FFF7C9FFBDE83840FBF733BB38B526
:104C80000D460446FBF71EFB01216B1E01FA03F3E0
:104C90002178204621EA03012170FFF7B5FFBDE826
:104CA0003840FBF71FBB0AB1FFF7D6BFFFF7E7BFDE
:104CB00001207047022001F0EDBE01207047FFFF88
:104CC000044B5B69180B00F00C00C3F3412318433D
:104CD000704700BF20C0092010B504468122012181
:104CE000FFF7B8FE01222179206801F0B5FB10F032
:104CF000600F14BF0120002010BD38B5002104460C
:104D0000FFF7AEFE812205B201212046FFF7A2FE89
:104D1000102095FBF0F003F0F1FA4FF0765103F01C
:104D200041FBA16803F036FA38BDFFFF08B5FFF775
:104D3000E4FF054903F036FB044903F0E7FB4FF0BD
:104D4000844103F027FA08BD000010410000A04094
:104D5000F0B51D460023ADF50B7D0E461746014606
:104D6000012201A80093FEF7C1F9044670B91DB1F4
:104D7000294601A8FEF736FC6B463A46314601A8A3
:104D8000FEF74BFA044601A8FEF71AFC20460DF583
:104D90000B7DF0BD033808B50A2822D8DFE800F003
:104DA0002106060D19151D191121210003F0FEFD24
:104DB000022303604FF0FF3008BD03F0F7FD162318
:104DC000F7E703F0F3FD1323F3E703F0EFFD1123FF
:104DD000EFE703F0EBFD0D23EBE703F0E7FD09231D
:104DE000E7E703F0E3FD0523E3E7FFFF431C70B5AE
:104DF0000E4906D00E4B1B68984202D10A68104635
:104E000070BD00231C460B4D0B60062B1A4606D0C6
:104E1000531C05EB031656F8106CB04204D104B1D4
:104E20000A60034B1860EAE70124EEE7A8C60720F2
:104E30000CC0072048C60720084B10B50446186868
:104E400018B1836B0BB903F0BBFE24B1012C02D067
:104E5000022C18BF203C204610BD00BFE0C0072038
:104E6000014B1860704700BF40C60720014B186017
:104E7000704700BF3CC6072008B5024805F052FA4B
:104E8000FEE700BF32F8010008B5024805F04AFA13
:104E9000FEE700BF18F801000020704701207047AE
:104EA00070B50A4B1D7885B90126094C6022294648
:104EB00020461E7004F028F84FF0FF33236323646C
:104EC0002365022325602661236270BD44C6072046
:104ED00048C607202DE9F74389461446FFF7ACFF83
:104EE0000546FFF783FF062806D103F05FFD09237F
:104EF00003604FF0FF3016E01B4E0701F3199B686B
:104F0000DB07F2D4002D11D001DB052DF1DDF31903
:104F1000D8680028EDD001AB22464946FEF77DF95E
:104F2000F8B1FFF737FF03B0BDE8F0830F4B1A6805
:104F3000984632B14D46A5EB09039C420ADC24EAAF
:104F4000E475601B0028D4DB3E447368201A0344D8
:104F50007360E8E7D8F800300020984705F8010BA7
:104F6000E9E70198201AEDE748C607203CC607206C
:104F7000F8B50E461746FFF75FFFFFF737FF062825
:104F800004D0124C05016219D06830B903F00EFD4F
:104F9000092303604FF0FF30F8BD3FB93146FEF7FB
:104FA00021FB70B1BDE8F840FFF7F4BE012F02D13C
:104FB00081683144F3E7022F01D1C168F9E7092084
:104FC000F0E76319DA6890685860F8BD48C60720B2
:104FD0002DE9F3410F461446FFF72EFF0646FFF773
:104FE00005FF0628054604D103F0E0FC0923036011
:104FF00006E0052E26D80120B04010F0390F02D06F
:105000004FF0FF302CE010F0060F1BD0174E306829
:1050100030B1B846A8EB07039C420EDC24EAE470EA
:10502000201A431CECD0A042EAD0114B201A03EB0B
:1050300005135A6802445A6012E0336818F8010BED
:105040009847E7E70A4B03EB0513D8680028CBD055
:1050500001AB22463946FEF798F920B1FFF79AFED8
:1050600002B0BDE8F0810198DAE700BF40C6072032
:1050700048C6072038B5FFF7DFFEFFF7B7FE062862
:1050800006D103F093FC092303604FF0FF3038BDD5
:105090004FF0FF320B4B00011C181A50E06808B9A2
:1050A000002038BDFEF78CFA0546E06803F0D0FE1C
:1050B0000023E360002DF3D02846BDE83840FFF719
:1050C00069BE00BF48C6072008B503F06FFC58232F
:1050D00003604FF0FF3008BD074B1B689A6882429F
:1050E00007D05A68824204D0DB681B1A58425841E4
:1050F00070470120704700BFE0C0072030B504466C
:105100008DB0A8B30025684601F094FB9DF80030EF
:1051100003A803F03F0303939DF801300B9503F0C0
:105120003F0304939DF8023003F01F0305939DF89D
:10513000043003F01F0306939DF8053003F00F03BE
:10514000013B0793BDF80630C3F30B03A3F26C7366
:1051500008939DF8033003F007030993BDF8083066
:10516000C3F30B03013B0A9303F0B6FF84E821006D
:1051700000200DB030BDFBF7A5B8FBF7B3B8FFFFBB
:10518000124B30B51A68014612B94FF080521A60BE
:1051900018680F4A44180F4D2244AA4297BF0E4A7E
:1051A0001C60881818601C6898BF10460B4A94420F
:1051B00082BF01321A60002039B1094A13680133F5
:1051C0001360084B1860084B196030BDB4C6072047
:1051D000FF7FFFEFFE3F0710B4C70720FF3F082007
:1051E000ACC60720B0C60720B8C6072003F028BE0B
:1051F00003F02EBE30B504468BB0684604F0E8F8E4
:10520000214B224D2360089B214AA360079B6360CA
:1052100053B913681F498B428ABF03F1604303F1FE
:105220007043A3F5E823636000236168E360B1F590
:10523000803F82BF01F17041A1F5E82161601168F2
:10524000144A914213D8C5F10053521A03F50423AE
:105250001A44E2602046104BE1611B68A3610F4BCA
:105260001B6863610E4B1B6823610BB030BD0D4B97
:105270009942EFD8C1F1804303F580135B1B002BEB
:10528000C8BFE360E6E700BFB4070000B4C707206B
:10529000B4C6072000800010B0C60720B8C607209B
:1052A000ACC60720FF3F082038B5064C23683BB941
:1052B0004FF49470FFF79AFF054601F065FE2560F4
:1052C000206838BDD4C6072038B5084C23685BB9C0
:1052D0000C20FFF78BFF0546FFF7E6FF90232B71AD
:1052E00000232860AB602560206838BDBCC607205D
:1052F00038B5074C23684BB90820FFF777FF054600
:10530000FFF7D2FF402328602B712560206838BD4D
:10531000CCC6072010B5044C23681BB90120FFF749
:1053200065FF2060206810BDC4C6072038B5054C55
:10533000256825B90120FFF759FF05702060206816
:1053400038BD00BFC8C6072010B5044C23681BB980
:105350000120FFF74BFF2060206810BDD8C6072052
:10536000014804F0DFBF00BF1DFC010038B5044652
:105370000D4600F097FE074BB0FBF3F00223B0FBA5
:10538000F3F2AA4204D9B3F5807F01D00233F6E7E5
:10539000236138BD40420F007FB500F235260C4630
:1053A00001223146FDF764FE054638BB039002AA90
:1053B00003A93046FEF7BDF940BB0298039B8278F3
:1053C00003FB02F183691248023B5A435208B2F5CB
:1053D000004F38BF01200F4B24BF03464FF48060BD
:1053E0004908B1FBF0F1B2FBF0F2009101932146C4
:1053F000094804F023FF012004B070BD074B2A4682
:105400002146074804F01AFF0020F5E7054BF6E7B0
:105410005BFC010058FC010065FC010062FC01001E
:1054200093FC01005EFC010070B5104D104E2C780D
:10543000BFF35B8F14F0010415D1284602F0F1F997
:1054400088B14FF40E70FFF7D1FE302380F835326B
:105450003A2380F8344280F8363280F837423060A0
:10546000284602F0EAF9306870BD00BFE8C60720A0
:10547000ECC6072010B5044C23681BB90120FFF7C8
:10548000B5FE2060206810BDC0C607204023B64985
:10549000F0B58B614FF00073B44A072593614FF468
:1054A00080338B61B24B02241868ADF5057D20F086
:1054B000F0001860186840F050001860186820F478
:1054C00040501860086840F040000860186820F4F8
:1054D0007C201860186840F428201860186820F4B0
:1054E00070001860186840F420001860186820F0F8
:1054F00040401860186840F000401860586820F07C
:105500003C005860586840F028005860586820F007
:1055100003005860086840F480300860586820F440
:1055200040505860086820F480000860D96821F471
:105530004031D960116841F080711160596821F4DF
:1055400040215960596841F480215960986889491F
:1055500001409960116841F4897141F001011160C5
:10556000996821F470119960996821F070419960EF
:10557000116821F446411160D96821F03001D960E9
:10558000D96841F03001D960D96821F47011D9602F
:10559000136843F000731360136823F08063136093
:1055A00001F03EFA01210A2000F090FB01210A20BF
:1055B00000F0A6FB7048012105604460FFF7D6FEAD
:1055C00001F03EFC0121152000F080FB0121152097
:1055D00000F096FB6948012105604460FFF7C6FEB4
:1055E000FFF762FE642101F099FC10B9644804F0F1
:1055F00099FE00F0B3FBFCF7BDFD10B9614804F063
:1056000091FE614801F02CFD604801F029FD4FF446
:10561000FA6001F070FDFFF7A3FE00F043FD02F019
:1056200069FE5B4902F072FF02F0EAFC02460B469B
:10563000584804F003FE00F0D9F9052804AC14D151
:1056400000236360544B1B682360FFF789FE534BB4
:105650005348D96C1A6D5B6D009404F0EFFDFFF7B1
:105660007FFE41F2883001F046FDFFF7DDFE4D4937
:10567000FFF792FE054668BB4B4804F0DFFDFFF7DD
:1056800009F9FFF7D1FE29462A4600F23520FEF738
:10569000B5F8464B464A00280CBF1046184604F0A1
:1056A00041FEFFF7C1FE3F49FFF776FE90B9414842
:1056B00004F038FEFFF79AF801463F4804F0BEFDBB
:1056C000FFF784F80546FFF791F800FB05F13B482A
:1056D00004F0B4FD3A4E3B4F3378BFF35B8F13F0C9
:1056E000010516D1304602F09CF890B14FF40E70CF
:1056F000FFF77CFD012380F83432312380F8353206
:105700003A2380F8375280F836323860304602F05B
:1057100094F82D4938682D4DFFF73EFE18211648A4
:10572000FFF724FEFFF71CFE2B684BB90820FFF79C
:105730005DFD0646FFF7B8FD3823306033712E60FB
:105740002868FFF7A2F9064610B9214804F0EAFDDF
:10575000FFF7BAFDFFF7C0FA054600283CD11D4807
:1057600004F0E0FD2E4637E000C0092020C00920EB
:1057700000C00240F0FCFCFF000003400080084035
:1057800064F8010095F80100BAF80100BFF80100C3
:1057900000247449C5F80100444002400040024022
:1057A000DDF8010055F901005DF9010051F8010033
:1057B0004CF801009AF90100B9F90100C8F901009B
:1057C000E0C60720E4C60720E3F90100D0C60720A1
:1057D000EBF9010006FA0100FFF78AFDFFF7D8F99F
:1057E000054618B96D4804F09DFD2E466C4D2B689A
:1057F0001BB90120FFF7FAFC28602868FFF796F92B
:10580000FFF788FDFFF754FAFFF790FDFFF7F9F96E
:10581000FFF730FEFFF751FAFFF788FD0021FFF791
:10582000F3F9002E40F08180FFF79AFDFFF760FD4D
:105830002D21FFF795F9FFF75BFD2D21FFF79CF96F
:10584000FFF774FDFF21FFF7DFF91022002120464A
:1058500003F05AFB00230F2221465248FFF778FA43
:1058600080B9204603F09DF8C5B22846FCF7C0F881
:105870004D4A4E4B2946002818BF1346494A4C480A
:1058800004F0DCFCFFF746FDFFF714FA05460020A4
:1058900005F00EFF284404F04DFD4FF40072002186
:1058A000204603F031FB204600F098FA214641489B
:1058B00004F0C4FCFFF754FD80220021204603F0D1
:1058C00023FB2046FEF76EFF2278FF2A3BD02146BD
:1058D000394804F0B3FC4FF208031D684FF20C0383
:1058E0001C684FF210031E684FF470431A684FF2A1
:1058F0000403AD0A1968A40A304804F09FFC2A4644
:1059000021462F4804F09AFC31462E4804F096FCBC
:10591000FFF726FD012001F0D5FD2B4804F002FD24
:10592000FFF71EFD0DF5057DF0BDFFF7E1FC054617
:10593000FFF7CAFCFFF7FAF902F084FEC1B228466D
:10594000FFF742F981E7FFF795FDFFF7B9F909285D
:105950001FD11E4804F0E6FC21461D4804F0F2FD6C
:1059600021461C4804F06AFC1B4804F0DBFC0023C1
:1059700003A91A48039304F0E5FD9DF80C30592B58
:1059800003D12046FEF7ECFEA5E7154804F0CAFC5B
:10599000A1E7144804F0C6FC1348F7E720FA010019
:1059A000D8C6072039FA010057F801005DF8010058
:1059B0003FFA010073FA010076FA010093FB01003F
:1059C000BFFB0100ECFB010009FC010092FA0100A1
:1059D000B4FA0100B9FA0100D4FA010017FB010082
:1059E0001BFB010033FB010061FB0100014B187838
:1059F000704700BFFCC6072030B585B000F072FFCD
:105A0000684600F017FF774C009B2360019B6360A2
:105A1000029BA36000F0ECFA00F044FB724BB0FB79
:105A2000F3F03C28714B00F29A80292880F0A18085
:105A3000142800F29B803A221A60082398226C49AD
:105A400000200B764B768B7681F82030694B83F8FB
:105A5000052383F8062383F8072383F8082390227D
:105A600083F80A2383F80B2383F80C23702283F82E
:105A70000E2383F80F23582283F8122383F813236D
:105A800083F8142383F81523782283F81923A0229E
:105A900083F8002383F8012383F8022383F8032388
:105AA00083F8042383F8092383F80D2383F8102354
:105AB00083F8112383F8162383F8172383F8182318
:105AC00083F81A2383F81B2383F81C2383F81E23EF
:105AD00083F81F2383F8202383F81D2383F82123D1
